:020000040800F2
:100000009048002035450008490A00084B0A0008BE
:100010004D0A00084F0A0008510A000800000000BD
:10002000000000000000000000000000490100087E
:10003000530A0008000000008D010008550A00085E
:100040004F4500084F4500084F4500084F45000840
:100050004F4500084F4500084F4500084F45000830
:100060004F4500084F4500084F4500084F45000820
:100070004F4500084F4500084F4500084F45000810
:100080004F4500084F4500084F4500084F45000800
:100090004F4500084F4500084F4500084F450008F0
:1000A0004F4500084F4500084F4500084F450008E0
:1000B0004F450008450D0008630D00084F45000836
:1000C0004F4500084F4500084F4500084F450008C0
:1000D0004F450008252800086D2800088F280008D3
:1000E0004F4500084F4500084F4500084F450008A0
:1000F0004F4500084F4500084F4500084F45000890
:100100004F4500084F4500084F4500084F4500087F
:100110004F4500084F4500084F4500084F4500086F
:100120004F4500084F4500084F4500084F4500085F
:10013000DFF810D006F0DAFD004800475F05000840
:10014000AFF3008090480020224B19680868B0E89F
:10015000F00F80F30988BFF36F8F4FF0000080F33A
:1001600011884EF00D0E7047000000000648006830
:10017000006880F3088862B661B6BFF34F8FBFF3A3
:100180006F8F00DF00BF00BF08ED00E0EFF30980D4
:10019000BFF36F8F0F4B1A6820E9F00F106008B59E
:1001A0004FF0500080F31188BFF34F8FBFF36F8F74
:1001B00005F095FA4FF0000080F31188BDE8084083
:1001C00019680868B0E8F00F80F30988BFF36F8FF3
:1001D000704700BF5C000020EFF30580704700000F
:1001E0004FF4FA7401F080F9204605F0B0F9F9E710
:1001F000FC4DFD4FDFF8F493C0B04FF0FF344FF4E7
:1002000000664FF480584FF4807A00940023012256
:10021000FF21686804F046FAC1070ED0314648460F
:1002200003F0AFF8F2A3F7A2FE49684606F0D2FD4C
:10023000684602F0DDFAFCA076E081070ED5314673
:10024000484603F0A0F8EAA3EEA2FD49684606F08E
:10025000C1FD684602F0CCFAFAA065E041070ED570
:100260008021384603F08FF8E1A3E6A2FB496846F7
:1002700006F0B0FD684602F0BBFAF9A054E00107B1
:100280000ED58021384603F07CF8D9A3DDA2FA49C7
:10029000684606F09FFD684602F0AAFAF7A043E020
:1002A000C1060ED54146484603F06DF8D0A3D5A24D
:1002B000F849684606F08EFD684602F099FAF6A005
:1002C00032E081060ED54146484603F05AF8C8A3ED
:1002D000CCA2F849684606F07DFD684602F088FA2F
:1002E000F5A021E041060ED55146484603F04BF8F3
:1002F000BFA3C4A2F749684606F06CFD684602F049
:1003000077FAF5A010E000067FF57FAF514648462A
:1003100003F037F8B6A3BBA2F649684606F05AFDCB
:10032000684602F065FAF4A006F044FD6DE71FB5DB
:10033000AC4C4FF0FF3500232A4602A9206804F098
:100340000EFD012801D0F2A08CE0FCA006F032FDE9
:100350009DF80900122805D90121606804F009F907
:10036000FEA006E00C2806D20221606804F001F924
:10037000FDA006F01FFD9DF808001A2806D94FF0D1
:100380000401606804F0F5F8FAA006E007D24FF027
:100390000801606804F0EDF8F9A006F00BFDBDF867
:1003A0000C00062805D91021606804F0E2F8F7A0D7
:1003B00006E0052806D22021606804F0DAF8F7A0EC
:1003C00006F0F8FCBDF80A00A02805D940216068B5
:1003D00004F0CFF8F5A006E06E2806D28021606810
:1003E00004F0C7F8F4A006F0E5FCBDF80C0000909E
:1003F000BDF80A309DF809209DF80810F1A006F01C
:10040000D9FC01261027CDE90076BDF80A20032388
:100410000021442001F0F3FECDE90076BDF80C2068
:1004200002231221442001F0EAFECDE900769DF876
:10043000082002232421542001F0E1FECDE90076BA
:100440009DF80920022324216A2001F0D8FEBDF87E
:100450000C30BDF80A209DF809109DF8080001F045
:1004600033F8E4A006F0A6FC65E71CB56F464FF034
:10047000FF355C4C4FF47A7601F0EAFBADF80200F0
:1004800001F034FCADF80400791C684601F004FB6F
:1004900000232A466946206804F0F4FA012806D0B1
:1004A000D8A006F087FC304605F051F8E4E7DEA05E
:1004B000F7E71CB505F066FF00220621052004F0D1
:1004C0005DFA484C206010B9DFA006F073FC04F020
:1004D00043F86060002836D0424902200C310023E6
:1004E000CDE900018022E1A1AFF2810004F06DFEB0
:1004F0003C49032010310023CDE900018022DEA118
:10050000AFF2D51004F061FE364905201431002306
:10051000CDE900018022DCA1AFF22B3004F055FEC2
:100520003049042018310023CDE900018022D9A1EF
:10053000AFF2533004F049FEA06804F071FEBDE84C
:100540001C4005F039BFD7A006F034FC4FF47A7494
:10055000DEA006F02FFC204604F0F9FFF8E71CB5FA
:1005600000F007FB482002F0B9F94FF4407002F0A8
:1005700017FA472142F20F7000F0B0FB01F0B4FA15
:1005800001F03EFB01F09CFB01F0EEFA01F0B6FA3F
:1005900000F04AFB4FF4E134204602F02EF8D2A0DE
:1005A00002F019F9204602F07AF8D5A002F020F9FD
:1005B000204602F0C2F8D8A002F027F901F047FF68
:1005C000DBA006F0F7FB4FF47A7002F0BDF901F002
:1005D000ABFC00220124102311461046009401F0C8
:1005E00046FEA9E104000020000C01400008014083
:1005F00043535458424332364D515454465749445C
:1006000000000000363765366137363731316532E4
:100610003136316631353562396632375F383634D6
:1006200032390000F8A20008CAAAB6C8B9FDB8DF7E
:10063000A3ACB7E7C9C8BFAAC6F40D0A0000000002
:1006400010A10008CAAAB6C8B9FDB5CDA3ACB7E7DA
:10065000C9C8B9D8B1D50D0A0000000004A200082D
:10066000CEC2B6C8B9FDB8DFA3ACBCD3C8C8C6AC4F
:10067000B9D8B1D50D0A0000ECA30008CEC2B6C8A7
:10068000B9FDB5CDA3ACBCD3C8C8C6ACBFAAC6F42F
:100690000D0A000098A00008CDC1C8C0CAAAB6C8FB
:1006A000B9FDB8DFA3ACCBAEB1C3B9D8B1D50D0A93
:1006B0000000000080A20008CDC1C8C0CAAAB6C808
:1006C000B9FDB5CDA3ACCBAEB1C3B4F2BFAA0D0A90
:1006D0000000000088A10008B9E2D5D5B3E4D7E353
:1006E000A3ACB2B9B9E2B5C6B2BBBFAAC6F40D0A93
:1006F0000000000070A30008B9E2D5D5B9FDB5CD62
:10070000A3ACB2B9B9E2B5C6BFAAC6F40D0A0000DF
:100710005B5741524E5D5BB4ABB8D0C6F7B2C9BCB3
:10072000AFB6D3C1D05DB5C4CAFDBEDDBDD3CAD599
:10073000CAA7B0DCA3A10D0A000000005BB4ABB8EF
:10074000D0C6F7B2C9BCAFB6D3C1D05DB5C4CAFD7F
:10075000BEDDD2D1BDD3CAD50D0A0000CAAAB6C823
:10076000B9FDB8DF720A0000CAAAB6C8B9FDB5CD96
:100770000D0A0000CEC2B6C8B9FDB8DF720A00008B
:10078000CEC2B6C8B9FDB5CD0D0A0000CDC1C8C0F6
:10079000CAAAB6C8B9FDB8DF720A0000CDC1C8C088
:1007A000CAAAB6C8B9FDB5CD0D0A0000B9E2D5D5C3
:1007B000B3E4D7E3720A0000B9E2D5D5B2BBD7E300
:1007C0000D0A0000CEC2B6C83A2025642C20CAAA61
:1007D000B6C83A2025642C20B9E2D5D53A20256444
:1007E0002C20CDC1C8C0CAAAB6C83A2025640D0ABB
:1007F00000000000CAFDBEDDC9CFB4ABB3C9B9A6C5
:10080000210D0A005BB4ABB8D0C6F7B2C9BCAFB615
:10081000D3C1D05DB5C4CAFDBEDDB7A2CBCDCAA7DA
:10082000B0DC0D0A000000005BB4ABB8D0C6F7B274
:10083000C9BCAFB6D3C1D05DB5C4CAFDBEDDD2D18F
:10084000B7A2CBCD0D0A0000B6D3C1D0B4B4BDA8B9
:10085000CAA7B0DCA3A1C7EBBCECB2E9B6D1C4DA3D
:10086000B4E6C5E4D6C3A1A30D0A000073656E7398
:100870006F725F7461736B0070726F636573735F27
:100880007461736B00000000616374696F6E5F7464
:1008900061736B00636C6F7564636D645F74617327
:1008A0006B000000CAC2BCFED7E9B4B4BDA8CAA799
:1008B000B0DCA3A1B6D1C4DAB4E6B2BBD7E3BBF2D5
:1008C000C5E4D6C3B4EDCEF30D0A00004576656EDF
:1008D000742047726F75702043726561746520459E
:1008E00072726F72210D0A00554152543120496EC7
:1008F0006974205375636365737366756C0D0A00C4
:10090000554152543220496E6974205375636365B2
:10091000737366756C0D0A00554152543320496E4D
:100920006974205375636365737366756C0D0A0093
:100930005374617274200A001023012200211846AA
:10094000009401F094FC1023022200212020009446
:1009500001F08DFC1023032200213020009401F0CF
:1009600086FC10233A2200214020009401F0B0FBC5
:100970001023042212210020009401F078FC10239F
:10098000052212211846009401F071FC1023062262
:1009900012212020009401F06AFC1023072212216A
:1009A0003020009401F063FC10233A2212214020F1
:1009B000009401F08DFB10230822242100200094D4
:1009C00001F055FC1023092224211846009401F05F
:1009D0004EFC10230A2224212020009401F047FC21
:1009E0001023062224213020009401F040FC102323
:1009F000072224214020009401F039FC10233A22E0
:100A000024215020009401F063FB00F0E0F900285D
:100A1000FBD100F0C1FA00F0F3FA07480023CDE95A
:100A20000040802205A1AFF2755004F0CEFB04F027
:100A30006EFF00201CBD00000C000020737461726A
:100A4000745F7461736B00007047FEE7FEE7FEE7BA
:100A5000FEE7704710B505F0B6F8012803D0BDE8F1
:100A6000104005F0BABC10BD10B502F0FBFC01202F
:100A700002F05CFD212002F026FD0028FAD01020B3
:100A800002F08EF9022002F07BF9002002F068FDEE
:100A9000002002F073FD4FF4806002F068FD4FF417
:100AA0006011002002F045FD012002F04AFD3920CE
:100AB00002F009FD0028FAD0022002F045FD02F004
:100AC0004AFD0828FBD10121BDE810401D2002F09D
:100AD000D6BD0CB500224C4800920192016841F449
:100AE000803101604FF4A063016801F4003101918D
:100AF0000099491C0091019911B900999942F3D1CB
:100B00000168890333D50121019140490A6842F007
:100B100010020A600A6822F003020A600A6842F0C2
:100B200002020A604168416041684160416841F4E5
:100B300080614160416821F47C114160416841F469
:100B4000E8114160016841F080710160016889012C
:100B5000FCD5416821F003014160416841F0020188
:100B600041604168C1F381010229FAD10CBD0192B3
:100B70000CBD254810B5016841F0010101604168D4
:100B8000234A114041600168224A11400160016816
:100B900021F480210160416821F4FE0141604FF49D
:100BA0001F018160FFF795FF1B494FF0006008604F
:100BB00010BD154A10B55068184B10F00C011848BC
:100BC00003D0042901D0082901D0036012E0516844
:100BD000536801F470114FF0020413F4803F04EBEA
:100BE000914102D053689B0301D50E4B00E00B4BA3
:100BF0005943016051680A4AC1F30311121D515C47
:100C00000268CA40026010BD00100240002002408D
:100C10000000FFF8FFFFF6FE08ED00E000127A008A
:100C20002000002000093D0038B50121142002F009
:100C300026FD4FF48074ADF8004010208DF80300BD
:100C400003200F4D8DF802006946284602F02FFB65
:100C50002146284602F097FB38BD08B50121102037
:100C600002F00DFD8020ADF8000010208DF803008B
:100C700003208DF802006946024802F018FB08BD07
:100C800000080140001001407FB50D4604460121D7
:100C9000022002F0FDFCADF804400020ADF8005049
:100CA0003D4CADF80600ADF802006946204602F062
:100CB000CDFD01221146204603F085F81D218DF857
:100CC0000C1001218DF80D108DF80F1003A801F004
:100CD0006CFE0021204603F061F87FBD7FB50D4614
:100CE00004460121042002F0D3FC2C4E304602F0D1
:100CF00015FD304603F07DF8ADF804400024ADF852
:100D00000050ADF80640ADF802406946304602F0AA
:100D10009DFD0121304603F067FA0122114630465D
:100D200003F051F81E208DF80C008DF80D400120C5
:100D30008DF80F0003A801F038FE0121304603F0C2
:100D40002DF87FBD10B5144C0121204603F04FFA59
:100D5000002805D02046BDE81040012103F053BA19
:100D600010BD10B50D4C0121204603F040FA18B11A
:100D70000121204603F047FA00BF09490888401CBA
:100D800080B20880B0F5967F04D300200880054922
:100D90000120087010BD0000000400400008004061
:100DA000000000200200002010B5F44806F002F810
:100DB0004FF4967001F0C8FDF0490020C1F804011D
:100DC000BDE810404FF48071EC4805F080BB2DE980
:100DD000F041EB4D0020A860EAA005F0EBFFFFF723
:100DE000E3FFEDA001F004FD40F6B83001F0ACFDEA
:100DF000E24805F0DFFFEAA005F0DCFFECA1DF48E8
:100E000005F070FB4FF4967728600FE0E9A005F03D
:100E1000D1FFFFF7C9FFE0A001F0EAFC384601F07E
:100E200093FDE3A1D54805F05DFB28600028EDD0D7
:100E3000E7A001F0DDFC384601F086FDFFF7B4FFC6
:100E4000E6A001F0D5FCE8A1CC4805F04BFB01265B
:100E5000286000282CD0C949E5A0AE6005F0AAFFA3
:100E6000FFF7A2FF384601F06FFDFFF79DFFE4A0FA
:100E700001F0BEFC384601F067FDCDA1BF4805F08A
:100E800031FB286028B1E1A005F094FF384601F05D
:100E90005BFDFFF789FFE1A001F0AAFC384601F0F5
:100EA00053FDE1A1B54805F01DFB0024286015E0C5
:100EB000B249E0A00831D1E7641CFFF775FFD7A065
:100EC00001F096FC384601F03FFDD7A1AB4805F094
:100ED00009FB2860642C01DDAE6001E00028EBD046
:100EE000FFF762FFD8A001F083FC384601F02CFD2B
:100EF000AFA1A24805F0F6FA286030B19F49D5A00D
:100F000005F058FF384601F01FFDFFF74DFFD9A04F
:100F100001F06EFC384601F017FDD9A1974805F0A5
:100F2000E1FA286030B19549D7A005F043FF384673
:100F300001F00AFDFFF738FFD7A001F059FC384651
:100F400001F002FDD7A18D4805F0CCFA2860D8A1A8
:100F50008A4805F0C7FA0024686016E0641CFFF7B1
:100F600023FFCDA001F044FC384601F0EDFCCDA1FB
:100F7000824805F0B7FA2860CDA1804805F0B2FAA2
:100F80006860642C01DDAE6003E0D5E90001084330
:100F9000E4D0A868BDE8F08170B50024C7A001F0D6
:100FA00027FC4FF49676304601F0CEFCFFF7FCFEAE
:100FB00093A001F01DFC304601F0C6FCFFF7F4FEE3
:100FC00096A001F015FC304601F0BEFC96A16B48DE
:100FD00005F088FA6A4D28600FE0641CFFF7E4FE14
:100FE0008EA001F005FC304601F0AEFC8EA16348F6
:100FF00005F078FA2860642C01DC0028EDD070BD83
:10100000F0B587B00024B1A001F0F2FB4FF4967662
:10101000304601F099FCFFF7C7FEB0A001F0E8FBF5
:10102000304601F091FCFFF7BFFEB0A1B64805F0D5
:10103000D1FEB549B5A005F0BDFEB34801F0D8FB1F
:10104000304601F081FC5AA14C4805F04BFA4C4D5A
:1010500003E057A1494805F045FA28600028F8D078
:10106000FFF7A2FEADA2BBA1A74805F0B3FEA648BC
:1010700001F0BEFB304601F067FCBDA13F4805F022
:1010800031FA28600CE06420641C01F05DFCB8A11A
:101090003A4805F027FA2860642C01DD00F02AFBAD
:1010A0000028F0D0FFF780FE002455A001F0A0FB3F
:1010B000304601F049FCB2A1304805F013FA28602F
:1010C0000028F8D0002101AA4318DB795354491CA9
:1010D000C9B20F29F8D300278DF81370FFF764FE0B
:1010E00001A9A9A005F066FEAD480090ADA3B5A288
:1010F000C0A1854805F06EFE834984A005F05AFE24
:10110000814801F075FB304601F01EFCC1A11B486F
:1011100005F0E8F928600DE06420641C01F014FC7F
:10112000BCA1164805F0DEF92860642C02DDFFF74B
:101130003BFEB3E70028EFD0FFF736FE99A2B9A136
:10114000714805F047FE704801F052FB6E4805F00B
:1011500031FE304601F0F8FBC0A1084805F0C2F9A5
:1011600028600028F8D0C1A005F024FE322001F04C
:10117000EBFBFFF719FE8BA288E100004807002077
:1011800034000020737461727420696E69742042A7
:101190004332360D0A0000004154690D0A00000078
:1011A000676574206261636B20424332360D0A002A
:1011B0004F4B00000D0AB5A5C6ACBBFAD5FDD4DA7D
:1011C000C1ACBDD3B5BDC4A3BFE92E2E2E0D0A0000
:1011D00041542B51434349440D0A000041542B43D1
:1011E000494D490D0A0000004552524F520000007F
:1011F000BFA8B4EDCEF3203A202573200D0A0000DD
:1012000041542B4347534E3D310D0A00474554206E
:10121000494D4549204F4B0D0A00000041542B43D6
:10122000474154543F0D0A002B43474154543A2040
:1012300031000000CED2B5C4BFA8BAC5CAC7203A93
:10124000202573200D0A000041542B5142414E4489
:101250003F0D0A003D3D3D3D3D3D3D3D42414E443B
:101260003D3D3D3D3D3D3D3D3D200D0A202573204A
:101270000D0A000041542B4353510D0A0000000099
:101280002B43535100000000D0C5BAC5D6CAC1BF18
:101290003A25730D0A00000041542B43455245473F
:1012A0003F0D0A002B43455245473A20302C310070
:1012B0002B43455245473A20312C310041542B43B2
:1012C0004750414444523D310D0A000041542B51D6
:1012D0004D54444953433D300D0A000041542B51B5
:1012E0004D54434C4F53453D300D0A0041542B5152
:1012F0004D544346473D2276657273696F6E222CCA
:10130000302C340D0A000000C0000020617473749A
:1013100072203D202573200D0A00000063396231E0
:101320006462666131362E696F7464612D6465761E
:101330006963652E636E2D736F7574682D342E6D21
:1013400079687561776569636C6F75642E636F6D1D
:101350000000000041542B514D544F50454E3D303C
:101360002C222573222C313838330D0A000000005E
:10137000514D544F50454E3A20302C300000000063
:101380002B4347534E3A0000CED2B5C4C4A3BFE9A5
:10139000494D4549CAC73A25730D0A0D0A0D0A0081
:1013A00004A5000836376536613736373131653286
:1013B0003136316631353562396632375F38363429
:1013C00032390000363765366137363731316532AC
:1013D0003136316631353562396632375F38363409
:1013E00032395F305F305F3230323530333239304E
:1013F0003300000041542B514D54434F4E4E3D306D
:101400002C222573222C222573222C222573220DB7
:101410000A000000514D54434F4E4E3A20302C30BC
:101420002C30000041542B514D545355423D302C2B
:10143000312C22246F632F646576696365732F25D1
:10144000732F7379732F6D657373616765732F6481
:101450006F776E222C300D0A000000002B514D5486
:101460005355423A20302C312C3000000D0A20C652
:10147000BDCCA8CFFBCFA2CFC2B7A2D6F7CCE2B6E5
:10148000A9D4C4B3C9B9A6200D0A00009EA1AB48D7
:101490002F6005F09FFCA94801F0AAF9A74805F0C4
:1014A00089FC304601F050FAAFF25001A44805F033
:1014B00019F828600028F7D0A2A005F07BFC3220A4
:1014C00001F042FA07B0F0BD00B5C5B08DE80F00DD
:1014D000A4A3AFF23012A84904A805F07BFC04A82D
:1014E00001F086F945B000BD70B5C0B0A3A1944825
:1014F00004F0F8FFA24C206050B1A2A005F05AFC05
:101500008F4805F057FC642001F01EFAFFF74CFCF1
:101510009FA18B4804F0E6FF9F4D4FF400662060CA
:10152000002815D03146284601F02DFF9BA005F07C
:1015300041FC8CA3AFF29412A449684605F04AFC22
:10154000684601F055F9642001F0FEF9FFF72CFC24
:101550009FA17B4804F0C6FF2060002815D03146CB
:10156000284601F00EFF9CA005F024FC7DA3AFF2FD
:10157000CC12A549684605F02DFC684601F038F903
:10158000642001F0E1F9FFF70FFCA0A16C4804F022
:10159000A9FF4FF480562060002815D03146284618
:1015A00001F0F1FE9BA005F005FC6EA3AFF20C224A
:1015B000A449684605F00EFC684601F019F964205C
:1015C00001F0C2F9FFF7F0FB9FA15D4804F08AFF2C
:1015D0002060002815D03146284601F0D2FE9CA09C
:1015E00005F0E8FB5FA3AFF24422A549684605F089
:1015F000F1FB684601F0FCF8642001F0A5F9FFF763
:10160000D3FBA0A14E4804F06DFFA04E206000283F
:1016100015D08021304601F0B4FE9DA005F0CAFB34
:1016200050A3AFF28022A649684605F0D3FB684676
:1016300001F0DEF8642001F087F9FFF7B5FBA1A106
:101640003F4804F04FFF2060002815D0802130462D
:1016500001F099FE9DA005F0ADFB42A3AFF2BC22C4
:10166000A649684605F0B6FB684601F0C1F864205B
:1016700001F06AF9FFF798FBA1A1314804F032FFAD
:101680004FF480762060002815D03146284601F0BE
:1016900078FE9DA005F08EFB32A3AFF2F822A6499A
:1016A000684605F097FB684601F0A2F8642001F057
:1016B0004BF9FFF779FBA1A1214804F013FF20604B
:1016C000002815D03146284601F05DFE9DA005F0AA
:1016D00071FB24A3AFF23432A649684605F07AFBC9
:1016E000684601F085F8642001F02EF9FFF75CFBF5
:1016F00040B070BDA0480168A04A01F4E061114308
:101700000160BFF34F8FFEE741542B514D545355A9
:10171000423D302C312C22246F632F64657669633F
:1017200065732F25732F7379732F636F6D6D616EE2
:1017300064732F23222C300D0A000000C00000200B
:10174000480700200D0AC6BDCCA8CFFBCFA2CFC250
:10175000B7A2C3FCC1EEB6A9D4C4B3C9B9A6200DC3
:101760000A00000043535458424332364D515454FA
:10177000465749440000000068A4000830300000CB
:1017800034000020C3FCC1EECFC2B7A20D0A000096
:1017900046533A3000000000000801402D2D2D2D49
:1017A0002D2D2D2D2D2D2D2D2D2D2D2DB7E7C9C8EE
:1017B000B9D8B1D52D2D2D2D2D2D2D2D2D2D2D2DF6
:1017C0002D2D2D2DA1A30D0A0000000010A1000851
:1017D00046533A31000000002D2D2D2D2D2D2D2D9D
:1017E0002D2D2D2D2D2D2D2DB7E7C9C8B4F2BFAA53
:1017F0002D2D2D2D2D2D2D2D2D2D2D2D2D2D2D2D19
:10180000A1A30D0A00000000F8A2000853423A30DC
:10181000000000002D2D2D2D2D2D2D2D2D2D2D2DAC
:101820002D2D2D2DCBAEB1C3B9D8B1D52D2D2D2D4C
:101830002D2D2D2D2D2D2D2D2D2D2D2DA1A30D0A31
:101840000000000098A0000853423A310000000058
:101850002D2D2D2D2D2D2D2D2D2D2D2D2D2D2D2DB8
:10186000CBAEB1C3B4F2BFAA2D2D2D2D2D2D2D2D14
:101870002D2D2D2D2D2D2D2DA1A30D0A00000000A5
:1018800080A20008484F543A31000000000C01408B
:101890002D2D2D2D2D2D2D2D2D2D2D2D2D2D2D2D78
:1018A000BCD3C8C8C6ACB4F2BFAA2D2D2D2D2D2D8A
:1018B0002D2D2D2D2D2D2D2D2D2DA1A30D0A00000B
:1018C000ECA30008484F543A300000002D2D2D2D78
:1018D0002D2D2D2D2D2D2D2D2D2D2D2DBCD3C8C8CD
:1018E000C6ACB9D8B1D52D2D2D2D2D2D2D2D2D2DAD
:1018F0002D2D2D2D2D2DA1A30D0A000004A20008D1
:101900004C494748543A31002D2D2D2D2D2D2D2D8C
:101910002D2D2D2D2D2D2D2DB2B9B9E2B5C6B4F238
:10192000BFAA2D2D2D2D2D2D2D2D2D2D2D2D2D2DD8
:101930002D2DA1A30D0A000070A300084C494748B3
:10194000543A30002D2D2D2D2D2D2D2D2D2D2D2DBD
:101950002D2D2D2DB2B9B9E2B5C6B9D8B1D52D2DE1
:101960002D2D2D2D2D2D2D2D2D2D2D2D2D2DA1A3BD
:101970000D0A000088A100080CED00E00400FA0543
:1019800008B50121052001F07AFE4020ADF80000E5
:1019900010208DF8030003208DF802006946554899
:1019A00001F085FC08BD08B50121052001F067FEA6
:1019B0004020ADF8000004208DF8030069464D4832
:1019C00001F075FC08BD10B5FFF7DAFF4A4C0020A6
:1019D000C4F89801142004F5CC7400F0B5FF012080
:1019E0002060BDE810401E2000F096BF70B50024B6
:1019F000FFF7D9FF404D04E0641CE4B2012000F081
:101A00008BFFD5F8180110B1642CF5D30DE0642CD0
:101A10000BD2002404E0641CE4B2012000F07CFF3F
:101A2000D5F8180118B1642C04D3012070BD642CC2
:101A3000F1D3FAE7002070BD70B500242E4D04E00C
:101A4000641CE4B2012000F067FFD5F8180108B16A
:101A5000642CF5D3002404E0641CE4B2012000F0FF
:101A60005BFFD5F8180108B9642CF5D3282000F0E5
:101A700053FFD5F81801002800D0012070BD70B5C3
:101A8000002004464006050EFFF7D6FF641C2843DD
:101A9000E4B2082CF6D370BD2DE9FC410E46074692
:101AA000FFF791FFFFF7A2FF10B10120BDE8FC8115
:101AB00000246D46FFF7E3FF2855641CE4B2052CB3
:101AC000F8D39DF800009DF801109DF803304218EE
:101AD0009DF802100B441A449DF804309A4201D13B
:101AE000307039700020E1E710B5FFF76CFFBDE8FA
:101AF00010407BE70008014000002142F8B50121B9
:101B0000042001F0BCFD4FF4C050ADF800000324E8
:101B1000134E8DF8024010258DF80350694630466B
:101B200001F0C5FB0121082001F0A9FD8020ADF8DE
:101B300000008DF802400B4C8DF80350694620469A
:101B400001F0B5FBE114304601F01DFCA114304654
:101B500001F019FC8021204601F015FCF8BD0000C1
:101B600000080140000C014010B5012186B0480278
:101B700001F085FD4FF4004001F015FD00204FF409
:101B80006021CDE902108DF8050000908DF8040069
:101B900001201A4C8DF810006946204600F074FFB1
:101BA0000121204600F098FF204600F0B2FF2046B9
:101BB00000F0B4FF0128FAD0204600F0B6FF20461E
:101BC00000F0B8FF0128FAD006B010BD10B50B46E2
:101BD0000A4C01460122204600F0D6FF0121204692
:101BE00000F0AFFF0221204601F0A2F80028F9D052
:101BF0002046BDE8104001F00BB800000024014071
:101C000008B50121042001F03AFD0120ADF80000E3
:101C100000208DF803006946234801F048FBFFF7D8
:101C2000A3FF08BD05210020FFF7D0BF70B5002538
:101C30002C46FFF7F7FF0544052000F085FE641CE5
:101C4000E4B20A2CF5D30A20B5FBF0F080B270BDE7
:101C500070B5FFF7EBFF04F0B3FE6FF00B0104F07B
:101C60001BFD124D294604F0A7FC044601462846F8
:101C700004F09CFC0146204604F0D0FC0C4904F022
:101C80009BFC04F0BBFE0B4A0B4B05F0A1FD0022B0
:101C90000A4B04F0B4FD04F098FE80B2B0F57A7FF0
:101CA00001D340F2E73070BD0008014033335340A8
:101CB00000401C46BF7D1D386744E3BF0088E340F9
:101CC00008B50121042001F0DAFC0220ADF8000083
:101CD00000208DF803006946144801F0E8FAFFF788
:101CE00043FF08BD05210120FFF770BF70B5002537
:101CF0002C46FFF7F7FF0544052000F025FE641C85
:101D0000E4B20A2CF5D30A20B5FBF0F004F058FE3B
:101D100004F074FE064A074B04F0E3FD0022064B74
:101D200004F06AFD04F051FE80B270BD000801406D
:101D30007B14AE47E17A4440000059400320401E26
:101D4000C0B2FCD2704770B5FA4D4FF40074214612
:101D5000284601F018FB6110284601F012FBFFF73E
:101D6000EDFF21462846BDE8704001F00ABB70B582
:101D7000F04C4FF40071204601F003FBFFF7DEFF4B
:101D8000A5152946204601F0FCFAFFF7D7FF2946A2
:101D9000204601F0F8FABDE87040CFE72DE9F041A8
:101DA000E44F002405464FF40078BE15280641464E
:101DB000384602D501F0E5FA01E001F0E4FAFFF758
:101DC000BDFF3146384601F0DCFAFFF7B7FF314678
:101DD000384601F0D8FA6806641C050EE4B2082CF7
:101DE000E4D3BDE8F08170B5D24D4FF400742146C4
:101DF000284601F0C6FA66103146284601F0C1FABD
:101E0000FFF79CFF2146284601F0BDFAFFF796FF39
:101E10003146284601F0B7FABDE870408EE770B54C
:101E20000C460546FFF7DFFF7820FFF7B7FFFFF707
:101E30009EFF0CB1402000E00020FFF7AFFFFFF74E
:101E400096FF2846FFF7AAFFFFF791FFBDE8704015
:101E500079E720B1012805D10021A720DFE7002183
:101E6000A620FBE7704710B550B101280FD1002123
:101E7000C020FFF7D4FF0021A020BDE81040CEE72E
:101E80000021C820FFF7CBFF0021A120F5E710BDFE
:101E900010B500218D20FFF7C2FF00211420FFF7AD
:101EA000BEFF0021BDE81040AF20B8E710B500210B
:101EB0008D20FFF7B4FF00211020FFF7B0FF0021B5
:101EC000BDE81040AE20AAE770B59B4E002505F195
:101ED000B000C0B20021FFF7A2FF00210846FFF7C3
:101EE0009EFF00211020FFF79AFFFFF77CFF78206C
:101EF000FFF754FFFFF73BFF4020FFF74FFFFFF7CF
:101F000036FF002406EBC400405DFFF747FFFFF7F4
:101F10002EFF641CE4B2802CF4D3FFF714FF6D1C79
:101F2000EDB2082DD3D370BD30B40021824B0A46E8
:101F3000002003EBC004401CC0B262548028F8D3D8
:101F4000491CC9B20829F3D330BCBDE730B5CC0871
:101F500001F0070301259D40EBB2774D05EBC0056D
:101F6000C808285C0AB1184302E063EA0000C043D5
:101F7000285530BD2DE9FC4F0026171A8046701EEB
:101F80003546A3EB01098C46002F02DD4FF001011D
:101F900002E003D14FF00001009102E0C7F1000719
:101FA0000090B9F1000F02DD4FF0010002E003D113
:101FB0004FF00000834602E08346C7F1000948461F
:101FC0004F4501DD3C4600E00446601C4FF0000A2E
:101FD000019015E00CF0FF0108F0FF000B9AFFF7ED
:101FE000B5FF3E444D44A64202DD0099361B8844AD
:101FF000A54201DD2D1BDC440AF101001FFA80FA25
:1020000001998A45E6DBBDE8FC8F2DE9F04F944647
:102010000E4607460025144602FB0CFB52E0A6EBD9
:10202000040807EB050A08F0FF010AF0FF0001228F
:10203000FFF78CFF08F0FF01A7EB050808F0FF0091
:102040000122FFF783FF06EB040909F0FF0108F006
:10205000FF000122FFF77AFF09F0FF010AF0FF00FD
:102060000122FFF773FF06EB050A07EB04080AF0ED
:10207000FF0108F0FF000122FFF768FFA6EB05094A
:1020800009F0FF0108F0FF000122FFF75FFFA7EB57
:10209000040809F0FF0108F0FF000122FFF756FFD6
:1020A0000AF0FF0108F0FF000122FFF74FFF6D1C4F
:1020B00005FB05F004FB04000CFB1C00002801DDFF
:1020C000641E6D1E600060435845A8DABDE8F08FBD
:1020D0002DE9F84F80461D468C46C3468A46082B9C
:1020E0000DD0680700D0012000EBD50069084843F7
:1020F000C0B2203A02F0FF09002600904EE0062010
:10210000F7E7082D10D00C2D1CD0102D1ED0182D47
:102110004CD10A4909EBC90001EB80000027845D1E
:10212000E00717D00A9A18E0054909EB490001EBCE
:102130004000F3E7000C0140C0010020808E000841
:10214000F481000809EB4900FE49E5E7FE4901EB8F
:102150000910E3E70A9838B3002261464046FFF7CA
:10216000F5FE7F1C64080CF1010CFFB20CF0FF0CB3
:10217000082FD5D308F1010000F0FF08082D0AD080
:10218000A8EB0B005946B0EB550F04D10AF108003B
:10219000884600F0FF0A761CD446F6B200988642C4
:1021A000AFD3BDE8F84F8FE60122D6E7BDE8F88F40
:1021B0002DE9F8431E46154688460446089F0BE065
:1021C0003346414620460097FFF782FF082E0BD08A
:1021D00004EB5600C4B26D1C2A78A2F120005E28E0
:1021E000EED9BDE8F8436FE6A41DE4B2F3E7034679
:1021F000012000E05843491EC9B2FBD270472DE9C7
:10220000F84F0025DDE90A691F4692468B46804655
:10221000082E00D1022500241CE0381B401EC1B24C
:102220000A20FFF7E4FFBAFBF0F00A21B0FBF1F25D
:1022300001FB1200CDF8009088B13030C2B205EB3E
:10224000560101FB0480C0B233465946FFF740FFF8
:10225000641CE4B2BC42E0D3BDE8F84F34E605EBC1
:10226000560101FB0480C0B233463022EDE72DE970
:10227000F84F80461E4691468C46C3468A4658070C
:1022800000D0012000EBD60070430025009041E013
:10229000102E0ED0182E10D0202E15D0402E85D105
:1022A000AA4901EB49200027445DE00711D00A9AB2
:1022B00012E0A74901EB4910F5E7A44909EBC90071
:1022C000C83901EBC000EEE7A049803901EBC91025
:1022D000E9E70A9820B3002261464046FFF736FE40
:1022E0007F1C64080CF1010CFFB20CF0FF0C082FEE
:1022F000DBD308F1010000F0FF08A8EB0B00594602
:10230000B04204D10AF10800884600F0FF0A6D1CB3
:10231000D446ADB200988542BAD3BDE8F84FD3E5B4
:102320000122D9E742E708B500258A4E9246884641
:1023300081462C4610232A4618218020CDF800A083
:10234000FFF795FF6D1CEDB24D4519D1002513E047
:102350000121002006EBC1021718135C401CC0B21B
:1023600007F8083C0828F7D3491CC9B29029F0D3D4
:10237000FFF7AAFD6D1CEDB2B5EB081FE8D30025F1
:10238000641CE4B2102C00D100240121002006EBD3
:10239000C1021718135C401CC0B207F8083C08289B
:1023A000F7D3491CC9B29029F0D3FFF78DFD002C5B
:1023B000CAD1BFE72DE9FF5F06460F464FF000097F
:1023C000B3468846580700D0012000EBD3000390A5
:1023D000002033E04FF0000C2AE00E98002410F8A3
:1023E000095009F101001FFA80F9E80701D00F9A9E
:1023F00002E00F9848B3002239463046FFF7A6FDA9
:102400007F1C641C6D08E4B2FFB2082CEDD3761C6F
:10241000F6B20298A6EB0B01814204D108F1080044
:102420005E4600F0FF080CF1010C47460CF0FF0C73
:1024300002988445D1D30AF10100C0B203998246C3
:102440008842C7D3BDE8FF5F3EE50122D4E738B537
:102450000121082001F013F94FF48074ADF8004019
:1024600014208DF8030003203B4D8DF802006946CF
:10247000284600F01CFF2146284600F082FF640039
:10248000ADF800406946284600F011FF2146284675
:1024900000F077FFC82000F057FA0021AE20FFF7C8
:1024A000BEFC00210846FFF7BAFC00211020FFF710
:1024B000B6FC00214020FFF7B2FC00218120FFF78D
:1024C000AEFC0021CF20FFF7AAFC0021A120FFF7DE
:1024D000A6FC0021C820FFF7A2FC0021A620FFF7E0
:1024E0009EFC0021A820FFF79AFC00213F20FFF767
:1024F00096FC0021D320FFF792FC00210846FFF74D
:102500008EFC0021D520FFF78AFC00218020FFF7F8
:1025100086FC0021D920FFF782FC0021F120FFF783
:102520007EFC0021DA20FFF77AFC00211220FFF761
:1025300076FC0021DB20FFF772FC00213020FFF742
:102540006EFC0BE01C84000890880008049E0008C4
:10255000DC9B0008C0010020000C0140002120206D
:10256000FFF75DFC00210220FFF759FC00218D20C0
:10257000FFF755FC00211420FFF751FCFFF7D4FCB6
:102580000021AF20FFF74BFC38BD00007047CB495E
:102590000A885206FCD5C94AC1B2121D1180704783
:1025A00070B5C64C05468021204601F089FF002801
:1025B000F9D029462046BDE8704001F020BF70B533
:1025C000BF4C05468021204601F07AFF0028F9D053
:1025D00029462046BDE8704001F011BF70B5B94CE6
:1025E00005468021204601F06BFF0028F9D02946DE
:1025F0002046BDE8704001F002BFF0B5054687B047
:10260000012144F2040001F03AF8AC4E304601F0EA
:10261000FDFD7015ADF8100003248DF81240182050
:10262000A94F8DF8130004A9384600F040FE30157C
:10263000ADF8100004208DF8130004A9384600F00E
:1026400036FE25208DF814008DF8154001208DF8F8
:10265000170005A800F0A9F90020ADF80400ADF8B6
:102660000600ADF80800ADF80C000C20ADF80A002B
:1026700000956946304601F0F9FD012240F22441FF
:10268000304601F070FE012240F22551304601F043
:102690006AFE0121304601F05CFE07B0F0BDF0B5E6
:1026A000074687B00121042000F0E9FF012148041A
:1026B00000F0EEFF824D284601F0A8FD0424ADF89D
:1026C000104003208DF8120018207F4E8DF8130063
:1026D00004A9304600F0EBFD0820ADF810008DF89D
:1026E000134004A9304600F0E2FD26208DF81400C6
:1026F00002208DF8150001208DF8170005A800F0C4
:1027000054F90021ADF80810ADF804100C20ADF814
:102710000610ADF80C10ADF80A000097694628467F
:1027200001F0A4FD012240F22551284601F01BFED4
:102730000121284601F00DFEAFE7F0B5074687B04E
:102740000121082000F09BFF0121880400F0A0FF78
:102750005C4D284601F05AFD2815ADF81000032005
:102760008DF812001820594E8DF8130004A9304638
:1027700000F09DFDE814ADF8100004248DF813401E
:1027800004A9304600F093FD27208DF814008DF841
:10279000154001208DF8170005A800F006F900216A
:1027A000ADF80810ADF804100C20ADF80610ADF827
:1027B0000C10ADF80A0000976946284601F056FD56
:1027C000012240F22551284601F0CDFD0121284685
:1027D00001F0BFFD61E710B538490C1D04E00B881E
:1027E0005B06FCD52280401C0278002AF7D110BD80
:1027F00010B533490C1D04E00B885B06FCD5228024
:10280000401C0278002AF7D110BD10B52D490C1DCF
:1028100004E00B885B06FCD52280401C0278002A6D
:10282000F7D110BD10B5254C40F22551204601F0DE
:1028300051FE00280BD0204601F0E5FD2449D1F8D7
:1028400004218854D1F80401401CC1F8040110BDD2
:10285000204AD2F80411FF2901D9002003E0505486
:10286000D2F80401401CC2F80401704710B5144CA2
:1028700040F22551204601F02DFE002806D02046CA
:1028800001F0C1FDBDE81040C0B2E1E710BD10B5D8
:102890000C4C40F22551204601F01CFE00280BD0C4
:1028A000204601F0B0FD0C49D1F804218854D1F83C
:1028B0000401401CC1F8040110BD000000380140B3
:1028C000004400400048004000080140000C014066
:1028D00040060020480700205008002010B50420C2
:1028E00000F0A3F82B482C492C4A0068B0FBF1F308
:1028F000B0FBF1F14FF47A70414313700120508026
:102900004FF0E020026942F0020202614161016978
:1029100041F00101016110BD70B54FF0E0250021CB
:102920006C691E4AAB6912785043AA699A42FCD07E
:1029300002D2A3EB020302E0A4EB020633441944E3
:1029400013468142F1D370BD70B5044603F03BF9E4
:1029500001280CD0114D6888844203D3B4FBF0F0F9
:1029600002F0F5FD6888B4FBF0F100FB11444FF470
:102970007A706043BDE87040CEE770B5054600242C
:102980004FF47A7603E03046FFF7C6FF641CAC4292
:10299000F9D370BD2000002040420F004400002009
:1029A0002849084328490860704730B50F23C2788A
:1029B00001780125F2B1244A126801F1E02102F404
:1029C000E062C2F5E062120AC2F10404D340427828
:1029D000A24084781C401443220181F8002400782E
:1029E00000F01F018D404009800000F1E020C0F898
:1029F000005130BD01F01F0085404809800000F102
:102A0000E020C0F8805130BD104A114001430E480B
:102A1000001F016070470C4A121D0029116801D087
:102A2000014300E08143116070474FF0E02104282A
:102A3000086903D020F004000861704740F00400EA
:102A4000FAE700000000FA050CED00E080FFFF1F30
:102A5000C54910B5884202D1012144150AE0C34995
:102A6000884202D10121041504E0C14988420AD1FB
:102A70000121CC03204600F014FE2046BDE81040A2
:102A8000002100F00EBE10BD10B54268B94B0C79A4
:102A90001A400B6842EA0422134343608268B64B33
:102AA0001A40D1E9024323434C7942EA44021343DA
:102AB0008360C26A097C22F47002491EC9B242EAEC
:102AC0000151C16210BD002101600171417181603D
:102AD000C1600121017470470029816802D041F072
:102AE000010101E021F00101816070470029816846
:102AF00002D041F4807101E021F48071816070475F
:102B0000002A4268C9B201D00A4300E08A43426009
:102B10007047816841F008018160704701460020DC
:102B20008968090700D501207047816841F00401D8
:102B300081607047014600208968490700D501205F
:102B400070470029816802D041F4A00101E021F41E
:102B5000A00181607047014600208968490200D5C4
:102B6000012070474268491E22F4604242EA413126
:102B7000416070470029416802D041F4006101E0E2
:102B800021F400614160704770B5072609290AD910
:102B9000C568A1F10A0404EB4404A640B543A34070
:102BA0001D43C56007E0056901EB4104A640B5433C
:102BB000A3401D4305611F23072A09D2446B521EFF
:102BC00002EB820293409C4391400C43446370BDEE
:102BD0000D2A09D2046BD21F02EB820293409C4360
:102BE00091400C43046370BDC46A0D3A02EB82024B
:102BF00093409C4391400C43C46270BD002981689E
:102C000002D041F4801101E021F48011816070470D
:102C1000C06C80B2704754484C300068704700293F
:102C2000416802D041F4806101E021F4806141609B
:102C300070470029416802D041F4805101E021F43D
:102C4000805141607047826822F4E0420A4382600A
:102C500070470029816802D041F4004101E021F46D
:102C60000041816070470029816802D041F402115F
:102C700001E021F40211816070470146002089685B
:102C8000890200D50120704770B5072609290AD9A5
:102C9000C568A1F10A0404EB4404A640B543A3406F
:102CA0001D43C56007E0056901EB4104A640B5433B
:102CB000A3401D430561836BC3F30154121B921C97
:102CC00002EB82021F249440A34391400B43836391
:102CD00070BD826B491E22F4401242EA01518163A9
:102CE000704708B508440090026008BD08B5084464
:102CF00028300090006880B208BD42681F4B1A401F
:102D00000A4342607047416282627047426822F023
:102D10001F020A43426070471349083100280868BF
:102D200002D040F4000001E020F400000860704789
:102D30000246002012680A4200D001207047C943B1
:102D40000160704710B50246002054680B0AC9B2F2
:102D50000C401168194202D0002C00D0012010BD97
:102D60006FEA1121016070470024014000280140F2
:102D7000003C0140FFFEF0FFFDF7F1FFFFFD3FFFCC
:102D8000FD4A116801F03801014311607047FA49AA
:102D90000A6822F008020A600A6802430A60704763
:102DA000F5490A6822F010020A600A6802430A60C4
:102DB0007047F148F1494160F14941607047EE4880
:102DC000EE494160EE4941607047EB48016941F0CE
:102DD000800101617047E848016941F080010161AB
:102DE0007047E5490420CA68D20701D00120704726
:102DF000CA68520701D502207047C968C906FBD5C9
:102E00000320704700B50346FFF7EBFF02E0FFF732
:102E1000E8FF5B1E012803D0002B00D1052000BD78
:102E2000002BF4D1FAE770B505464FF43026304652
:102E3000FFF7E8FF042811D1CF4C206940F00200D1
:102E400020616561206940F0400020613046FFF755
:102E5000D9FF216941F6FD721140216170BD30B585
:102E60004FF430252846FFF7CDFF042810D1C24C7F
:102E7000206940F004002061206940F0400020619A
:102E80002846FFF7BFFF216941F6FB72114021611F
:102E900030BD00B50346FFF7A4FF02E0FFF7A1FF36
:102EA0005B1E012803D0002B00D1052000BD002BA4
:102EB000F4D1FAE730B54FF430252846FFF7E9FFA3
:102EC000042810D1AC4C206940F004002061206936
:102ED00040F0400020612846FFF7DBFF216941F602
:102EE000FB721140216130BDA3490020C9698907E7
:102EF00000D50120704770B5A525FFF7F5FF00B19B
:102F000000254FF430263046FFF77CFF042827D1F8
:102F1000994C9A48A0609A48A060206940F020002F
:102F20002061206940F0400020613046FFF76AFFD1
:102F300041F6EF7604280ED1206941F6DF71084092
:102F40002061206940F0100020618E4805804FF418
:102F50000050FFF757FF052802D021693140216159
:102F600070BDF8B5064600204FF4005C00900D4699
:102F70006046FFF747FF042816D17F4C206940F0D8
:102F80000100206135806046FFF73CFF41F6FE7787
:102F9000042806D1B61C280C009630806046FFF746
:102FA00031FF216939402161F8BDF0B506464FF483
:102FB00000570D463846FFF725FF04280CD16E4C0C
:102FC000206940F00100206135803846FFF71AFF84
:102FD0002169BA1E11402161F0BDF0B506464FF4DB
:102FE00000570D463846FFF70DFF042813D1624CF9
:102FF0006248A0606248A060206940F01000206133
:1030000035803846FFF7FEFE052804D0216941F6D9
:10301000EF7211402161F0BD2DE9F041C043C7B20C
:10302000C0F30726C0F30745040E4FF4005840468E
:10303000FFF7E8FE04283CD1DFF83CC14F49CCF84B
:1030400008104F49CCF80810DCF8101041F01001BE
:10305000CCF81010FF2F07D04A48083007804046B0
:10306000FFF7D0FE04281BD1FF2E07D045480A30B9
:1030700006804046FFF7C6FE042811D1FF2D07D079
:1030800040480C3005804046FFF7BCFE042807D1BD
:10309000FF2C07D03B480E3004804046FFF7B2FEBD
:1030A000052806D0DCF8101041F6EF721140CCF87C
:1030B0001010BDE8F08170B505464FF4302630465B
:1030C000FFF7A0FE042818D12B4C2C48A0602C48F8
:1030D000A060206940F020002061206940F040009D
:1030E00020613046FFF78EFE41F6DF71042805D0DF
:1030F000052802D022690A40226170BD206908407B
:103100002061206940F0100020611E480DB10021AF
:1031100000E0A52101803046FFF774FE0528ECD0C1
:10312000216941F6EF721140216170BDF0B5124C7A
:103130000746124816460D46A0601148A0604FF49D
:10314000005C6046FFF75EFE042814D1206940F061
:103150001000206135430B493D43891C45F0F800C0
:1031600008806046FFF74EFE052804D0216941F62D
:10317000EF7211402161F0BD00200240230167453C
:10318000AB89EFCD00F8FF1F1C48C069800870476D
:103190001A48006A7047194900200968890600D555
:1031A00001207047154A0029116901D0014300E050
:1031B00081431161704701460020104A012903D064
:1031C000D2680A4203D17047D169C907FBD00120F8
:1031D00070470A49C860704708490420CA68D20786
:1031E00001D001207047CA68520701D502207047FC
:1031F000C968C906FBD503207047000000200240C3
:103200008F4910B5884206D10121042000F049FA07
:10321000002104203BE08B49884206D1012108208F
:1032200000F03FFA0021082031E08749884206D1AA
:103230000121102000F035FA0021102027E08349F9
:10324000884206D10121202000F02BFA0021202005
:103250001DE07F49884206D10121402000F021FA7B
:103260000021402013E07B49884206D101218020C3
:1032700000F017FA0021802009E0774988420AD13E
:1032800084150121204600F00CFA00212046BDE8FB
:10329000104000F006BA10BD10B50121084600F03C
:1032A00000FA0021BDE81040012000F0FAB9F0B5A5
:1032B000CC78002204F00F03E40601D58C78234378
:1032C0000C784FF00F0C14F0FF0F4FF0010E1BD0D5
:1032D00005680E880EFA02F42640A64210D1960028
:1032E0000CFA06F725EA070703FA06F5CE783D4300
:1032F000282E02D0482E02D002E0446100E0046192
:10330000521C082AE5D305600A88FF2A1CD94468A4
:10331000002202F108060EFA06F50E882E40AE4293
:103320000ED196000CFA06F7BC4303FA06F7CE78E6
:103330003C43282E00D14561CE78482E00D105614E
:10334000521C082AE5D34460F0BD4FF6FF7101809E
:10335000022181700421C1707047024600209268EA
:103360000A4200D001207047806880B27047024650
:103370000020D2680A4200D001207047C06880B2A5
:10338000704701617047416170470AB10161704740
:1033900041617047C160704741F480328261816150
:1033A00082618169806970472C4B10B51A684FF6AD
:1033B0008074224042EA00100843186010BD28497A
:1033C000C8617047F0B5254C002801DAE36900E0D8
:1033D0006368450D2E0185B2C0F30157B540C0F3B7
:1033E0000342032F05D0C6020AD503269640B343F5
:1033F00007E023F07062636823F07063636002E0AB
:10340000AB4343F0706201B12A43002801DAE26164
:10341000F0BD6260F0BD10B58A0721F003040F49CA
:10342000120F21440F238C6893409C438C608B685F
:10343000904003438B6010BD0949C1F8DC00704720
:1034400000080140000C0140001001400014014040
:1034500000180140001C0140002001400000014014
:1034600000002042A548016841F001010160416867
:10347000A34A114041600168A24A114001600168FD
:1034800021F480210160416821F4FE0141604FF484
:103490001F018160704799490A6822F480320A60EE
:1034A0000A6822F480220A60B0F5803F07D0B0F5A8
:1034B000802F03D1086840F4A02008607047086896
:1034C00040F48030F9E70346002059098B4A01296E
:1034D0000AD002290AD0516A03F01F020123934047
:1034E0000B4200D0012070471168F5E7116AF3E73D
:1034F00018B500204FF4A06400903120FFF7E3FFDF
:103500000099491C0091A14201D00028F5D031203A
:10351000FFF7D9FF002800D0012018BD774A1168B5
:1035200021F0F80141EAC000106070477649086058
:103530007047724B5A68084322F47C12104358605B
:1035400070477149086670476C4A516821F0030161
:103550000143516070476948406800F00C007047B3
:10356000664A516821F0F001014351607047634A97
:10357000516821F4E0610143516070475F4A51682E
:1035800021F4605141EAC000506070475B4A002955
:10359000517A01D0014300E08143517270475A498A
:1035A000C1F8D8007047554A516821F440410143A1
:1035B000516070475149002281F8202081F8202075
:1035C000012802D0042802D1052081F8200070478C
:1035D0004E490860704749490A6A02430A627047C7
:1035E0004A4944390860704730B5444A5168484BED
:1035F00011F00C0103D0042901D0082901D0036087
:1036000012E05168536801F470114FF0020413F492
:10361000803F04EB914102D053689B0301D53D4BA1
:1036200000E03B4B5943016051680F2303EA11113D
:10363000394B5C5C0168E14041605468072505EA4C
:1036400014241C5D21FA04F48460546805EAD4242F
:103650001B5DD940C1605268032303EA92322E4BAE
:103660001B1F9A5CB1FBF2F1016130BD234A0029B6
:10367000516901D0014300E08143516170471F4A05
:103680000029916901D0014300E0814391617047B5
:103690001A4A0029D16901D0014300E08143D16178
:1036A0007047164A0029D16801D0014300E08143E8
:1036B000D1607047114A0029116901D0014300E02F
:1036C00081431161704711494039086070470E49C4
:1036D000C86470470949C87170470848416A41F099
:1036E000807141627047054A0146002092680A4293
:1036F00000D00120704701498872704700100240D5
:103700000000FFF8FFFFF6FE000042428004424244
:1037100000127A0000093D004C000020F94910B564
:10372000884202D10121C41486E0B0F1804F09D053
:10373000F54988420DD101210220FFF7BBFF00218E
:10374000022064E001210846FFF7B4FF00210120B8
:103750005DE0EE49884206D101210420FFF7AAFF6F
:103760000021042053E0EA49884206D101210820C3
:10377000FFF7A0FF0021082049E0E649884206D172
:1037800001211020FFF796FF002110203FE0E249C1
:10379000884206D101212020FFF78CFF0021202044
:1037A00035E0DE49884202D10121441444E0DC497D
:1037B000884202D10121CC043EE0DA49884202D19C
:1037C00001210C0538E0D849884202D101214C057D
:1037D00032E0D649884206D101214020FFF76AFF36
:1037E0000021402013E0D249884206D101218020E7
:1037F000FFF760FF0021802009E0CE4988420AD10E
:10380000841501212046FFF755FF00212046BDE821
:103810001040FFF74FBFC849884202D101210C0474
:103820000AE0C649884202D101214C0404E0C4499F
:1038300088420AD101218C042046FFF732FF20463E
:10384000BDE810400021FFF72CBF10BD30B5028845
:10385000AC4CB24DA0420DD0A8420BD0B0F1804F7D
:1038600008D0A94B984205D0A84B984202D0A84B4B
:10387000984203D122F070034A881A43A54B98421C
:1038800006D0A54B984203D022F44073CA881A434D
:1038900002808A8882850A880285A0420AD0A842CE
:1038A00008D0A54A904205D0A44A904202D0A44A2A
:1038B000904201D1097A01860121818230BD30B563
:1038C000028C22F001020284028C8388048B22F095
:1038D000020224F073050C882C430D8915434A8895
:1038E0002A43884DA8420BD08C4DA84208D0924D57
:1038F000A84205D0914DA84202D0914DA8420DD1C9
:1039000022F008054A8923F440732A4322F0040573
:103910008A882A438D891D43CB892B438380048366
:10392000C9888186028430BD70B5028C22F01002F5
:103930000284028C8388048B0D8824F4E6464FF6BB
:10394000FF7404EA052535430E8922F0200204EABB
:10395000061616434A8804EA02123243694EB04200
:1039600002D06E4EB04215D122F080064A8923F46F
:10397000406304EA0212324322F040068A8804EAD5
:10398000021232438E8904EA86061E43CB8904EA7A
:103990008303334383800583C9880187028470BD14
:1039A00070B5028C22F480720284028C8388848B2E
:1039B0000D8824F0730425430E894FF6FF7422F41A
:1039C000007204EA062616434A8804EA02223243B9
:1039D0004C4EB04202D0514EB04215D122F4006696
:1039E0004A8923F4405304EA0222324322F48066D7
:1039F0008A8804EA022232438E8904EA06161E43AC
:103A0000CB8904EA0313334383808583C988818784
:103A1000028470BD70B5028C22F480520284058C41
:103A20008288838B0C8823F4E6464FF6FF7303EA03
:103A30000424344325F400560D8903EA0535354343
:103A40004E8803EA06362E432E4DA84202D0334D4F
:103A5000A84205D122F480458A8903EA82122A43CA
:103A600082808483C988A0F84010068470BD828B50
:103A700022F440628283828B4FF6FF7303EA0121B6
:103A80000A4382837047828B22F00C028283828BEE
:103A90000A4382837047028B22F440620283028BC6
:103AA0004FF6FF7303EA01210A4302837047F0B522
:103AB000048C24F010040484078B048C4FF6FF75EB
:103AC00027F4734705EA03333B4305EA02221A430E
:103AD0000C4B05EA011698420ED0104B98420BD0C1
:103AE000B0F1804F08D0084B984205D0074B984260
:103AF00002D0074B984225D124F02001314341F0F8
:103B0000100124E0002C01400004004000080040A7
:103B1000000C004000100040001400400034014040
:103B2000004C01400050014000540140001800408A
:103B3000001C0040002000400040014000440140C3
:103B40000048014024F0A0030B4343F0100102831E
:103B50000184F0BD028B22F00C020283028B0A4327
:103B60000283704770B5048C24F001040484058B33
:103B7000048C4FF6FF7606EA0313134325F0F30592
:103B8000F84A2B4390420ED0F74A90420BD0B0F146
:103B9000804F08D0F54A904205D0F54A904202D0B5
:103BA000F44A904202D124F0020201E024F00A0219
:103BB0000A4342F001010383018470BD2DE9F84FEF
:103BC0000D4604460888E74FDFF89CC3DFF89C8366
:103BD000DFF89C934988AA882B894FF0804A48B324
:103BE00004282FD04FF6FF760828934632D0208C39
:103BF0009E4620F480502084A38B208C06EA01325C
:103C0000009223F4734306EA0B221A4306EA0E33AA
:103C10001343BC420AD0644508D0544506D04445FD
:103C200004D04C4502D0D34A944242D120F40050F3
:103C3000009940E02046FFF795FFE9882046BDE85F
:103C4000F84F87E72046FFF732FFE9882046BDE8B6
:103C5000F84F20E7208C20F480702084B4F81CE01A
:103C6000208C06EA031306EA01222EF0F30E43EA43
:103C70000B0343EA0E030092BC420AD0644508D00D
:103C8000544506D0444504D04C4502D0B94A94422C
:103C900003D120F40070009901E020F42060084373
:103CA00040F48070A3832084E9882046BDE8F84F63
:103CB000E9E620F40240084340F48050A3832084C6
:103CC000E9882046BDE8F84FD1E62DE9F0410C46E1
:103CD000002649880746012501B90226A288012A43
:103CE00000D10225208823890028384610D0FFF70C
:103CF000DEFEE1883846FFF7CEFE23892A463146AC
:103D00003846FFF72FFFE1883846BDE8F04121E74C
:103D1000FFF728FFE1883846FFF71CFF23892A4672
:103D200031463846FFF7C3FEE1883846BDE8F0412A
:103D3000B1E610B50A884B88CC881A438B88234398
:103D40001A430B891A434B8989891A430A43A0F8FD
:103D5000442010BD4FF6FF71818000210180C18099
:103D60004180017270470021018041808180C180C3
:103D7000018141818181C1817047002101804180A1
:103D800001228280C1800181704700210180418031
:103D90008180C18001814181818170470029018832
:103DA00002D041F0010101E021F0010101807047E2
:103DB000002930F8441F02D041F4004101E0C1F372
:103DC0000E0101807047002A828901D00A4300E079
:103DD0008A4382817047818270471143A0F848105E
:103DE0007047002A828901D00A4300E08A43828119
:103DF0007047018921F0070101817047028922F093
:103E000070020A430281704700B50346FFF7F6FFD0
:103E1000188940F00700188100BD70B516460D46A0
:103E2000602904464FF0010231460AD0FFF79AFE9E
:103E300029462046FFF7E2FF208940F00700208155
:103E400070BDFFF734FEF3E730B504894FF6FF7518
:103E500005EA03231343E4B20B432343038130BD3C
:103E600010B50446FFF7F0FF208940F0770020816D
:103E700010BD10B50446FFF7E7FF208940F48040ED
:103E8000208110BD018582827047028822F0700275
:103E90000A430280704770B50589048B068C25F0B3
:103EA00007050D434FF6FC410C4040F201110C4355
:103EB0004FF6FF7101EA031126F022061143314348
:103EC00005810483018470BD028B22F070020A43D5
:103ED00002837047028B4FF6FF7322F4E04203EA3D
:103EE0000121114301837047828B22F070020A4343
:103EF00082837047828B4FF6FF7322F4E04203EA1D
:103F000001211143818370470029018802D041F0CB
:103F1000800101E021F08001018070470029818843
:103F200002D041F0040101E021F0040181807047DA
:103F30000029818802D041F0080101E021F0080148
:103F4000818070470029818802D041F0010101E0A1
:103F500021F0010181807047028B22F008020A43A0
:103F600002837047002C01400034014000040040EF
:103F700000080040000C0040028B4FF6FF7322F453
:103F8000006203EA012111430183EAE7828B22F0F8
:103F900008020A438283E4E7828B4FF6FF7322F420
:103FA000006203EA012111438183DAE7028B22F0E8
:103FB00004020A430283D4E7028B4FF6FF7322F414
:103FC000806203EA012111430183CAE7828B22F058
:103FD00004020A438283C4E7828B4FF6FF7322F404
:103FE000806203EA012111438183BAE7028B22F048
:103FF00080020A430283B4E7028B4FF6FF73C2F3D9
:104000000E0203EA012111430183AAE7828B22F009
:1040100080020A438283A4E7828B4FF6FF73C2F3C8
:104020000E0203EA0121114381839AE7028C22F0F8
:1040300002020A43028494E7028C22F008020A4337
:1040400002848EE7028C4FF6FF7322F0200203EA0F
:1040500001111143018484E7028C4FF6FF7322F0B3
:10406000800203EA0111114301847AE7028C4FF6C2
:10407000FF7322F4007203EA01211143018470E707
:10408000028C4FF6FF7322F4006203EA0121114310
:10409000018466E7028C4FF6FF7322F4005203EAB4
:1040A0000131114301845CE710B50123048C8B407E
:1040B0009C430484038C8A401343038410BD10B5D1
:1040C0000423048C8B409C430484038C8A40134358
:1040D000038410BD30B50124058C00F118038C4019
:1040E000A543058489B108290FD0091FC1F34E00EB
:1040F0001844016821F4E041016001684FF6FF7344
:1041000003EA02221143016030BD03EB5100016854
:1041100021F0700101600168F4E70029018802D0F4
:1041200041F0020101E021F00201018019E70029BC
:10413000018802D041F0040101E021F00401018076
:104140000FE70029818802D041F0800101E021F0D1
:104150008001818005E7028822F00802028002883F
:104160000A430280FDE6828822F070028280828803
:104170000A438280F5E6028922F007020281028961
:104180000A430281EDE6028922F08002028102895F
:104190000A430281E5E68184E3E68185E1E68186E2
:1041A000DFE60187DDE68187DBE6A0F84010D8E690
:1041B000028822F44072028002880A430280D0E61C
:1041C000808ECEE6008FCCE6808FCAE6B0F8400045
:1041D000C7E6808CC5E6008DC3E602460020128A41
:1041E0000A4200D00120BCE6C9430182B9E602467A
:1041F0000020138A92890B4202EA010202D0002AAF
:1042000000D00120ADE6C9430182AAE6C44910B539
:1042100088420AD101218C032046FFF742FA20464A
:10422000BDE810400021FFF73CBABE49884202D1E8
:1042300001214C0410E0BC49884202D101218C04C8
:104240000AE0BA49884202D10121CC0404E0B8490D
:1042500088420AD101210C052046FFF72BFA20469F
:10426000BDE810400021FFF725BA10BD30B5044667
:10427000008A85B00D464CF6FF710840E98801437D
:104280002182A0894EF6F3110840A9882A8911439A
:104290006A8902431143A181A08A4FF6FF41084079
:1042A000A9890143A1826846FFF79EF99C48844290
:1042B00001D1039800E00298A189090400EBC00134
:1042C00001EB0010296801D5490000E08900B0FB2E
:1042D000F1F06422B0FBF2F109010B096FF018054F
:1042E0006B4300EB8300A3891D044FF0320306D516
:1042F00003EBC000B0FBF2F000F0070005E003EBB9
:104300000010B0FBF2F000F00F000843208105B070
:1043100030BD4FF41651016000218180C1800181C0
:104320000C2242818181704710B5028A4FF2FF034F
:104330001A400B884C8823438C88C9880C4323433C
:104340001343038210BD0021018041808180C18020
:1043500070470029818902D041F4005101E021F425
:1043600000518181704710B5C1F3421301F01F0461
:104370000121A140012B07D0022B07D01430002AC5
:10438000026805D00A4304E00C30F8E71030F6E785
:104390008A43026010BD002A828A01D00A4300E0ED
:1043A0008A4382827047028A22F00F020282028AC6
:1043B0000A4302827047828922F4006282818289E4
:1043C0000A43828170470029818902D041F00201AD
:1043D00001E021F0020181817047028A22F020026F
:1043E0000282028A0A43028270470029018A02D0AF
:1043F00041F4804101E021F4804101827047C1F322
:104400000801818070478088C0F308007047818967
:1044100041F0010181817047028BD2B20283028B8D
:1044200042EA012101837047028B02F47F4202833A
:10443000028B0A43028370470029818A02D041F02F
:10444000200101E021F02001818270470029818A4A
:1044500002D041F0100101E021F01001818270478B
:104460000029818A02D041F0080101E021F0080111
:10447000818270470029818902D041F4004101E026
:10448000C1F30E01818170470029818A02D041F475
:10449000006101E021F4006181827047828A22F08C
:1044A00004028282828A0A43828270470029818ABA
:1044B00002D041F0020101E021F002018182704747
:1044C0000246002012880A4200D001207047C943EA
:1044D0000180704770B501F01F0501260024C1F36B
:1044E000421306FA05F2012B0FD0022B0FD0838A5C
:1044F0004FEA11210088134206FA01F600EA06008D
:1045000001D000B10124204670BD8389F0E7038A01
:10451000EEE70A0A01219140C9430180704700007B
:10452000003801400044004000480040004C00407A
:10453000005000400648804706480047FEE7FEE777
:10454000FEE7FEE7FEE7FEE7FEE7FEE7FEE7FEE743
:10455000730B00083101000810B5182001F0BCFDF4
:10456000040004D000202060201D00F083F92046C4
:1045700010BD2DE9F04100258846040005D140F228
:104580001D22B0A1B6A002F015FC5FEA186005D0AC
:1045900040F21E22ABA1B2A002F00CFC261D04F1D9
:1045A0000C0700F075FF2168F06841EA08012160FE
:1045B00017E0D0E9001601F07F425301236821F093
:1045C0007F4102D40B4203D10AE031EA030307D151
:1045D000D20100D50D43216841F0007101F071FA5C
:1045E0003046B842E5D12068A843206000F0C2FE02
:1045F0002068BDE8F0812DE9F04104461F461546CC
:104600008846100E04D0D7228EA195A002F0D2FBCE
:1046100025B9D8228BA192A002F0CCFB01F0D3FAED
:1046200028B927B1DB2287A18DA002F0C3FB00F0DF
:104630002FFF204641462668FFF79BFF46EA080603
:1046400035EA060008D067B145F0A0613A46201D62
:1046500001F0DCF9002605E02068A843002720606F
:1046600000E0266800F086FED7B138B980494FF0E7
:1046700080500860BFF34F8FBFF36F8F01F0AEFA29
:10468000064680010AD401F07DFE266835EA060060
:1046900002D126EA0500206001F08EFE26F07F465A
:1046A0003046A6E72DE9F0479A46089F91460D4609
:1046B00004004FF0000605D140F24D1261A168A040
:1046C00002F078FB280E05D04FF4A7725DA164A01C
:1046D00002F070FB2DB940F24F125AA160A002F017
:1046E00069FB01F070FA30B92FB14FF4A97255A1EE
:1046F0005BA002F05FFB00F0CBFED4F800805246D6
:104700002946404600F094F840B100274646B9F1EA
:10471000000F15D02068A843206011E0AFB1B9F1B7
:10472000000F01D04FF08076BAF1000F01D046F0B3
:10473000806645EA06013A46201D01F067F9002629
:1047400000F018FE1FB310B109E04646F8E74849EB
:104750004FF080500860BFF34F8FBFF36F8F01F0B1
:104760003DFA0646800110D401F00CFE2668524640
:104770002946304600F05CF828B1B9F1000F02D0AC
:104780002068A843206001F017FE26F07F463046DF
:10479000BDE8F08770B50E46040005D140F2DF1287
:1047A00028A12FA002F006FB300E05D04FF4F072C6
:1047B00024A12BA002F0FEFA01F0E4FD256825EA11
:1047C0000600206001F0F8FD284670BD5022EFF38E
:1047D000118182F31188BFF34F8FBFF36F8F006891
:1047E00081F3118870472DE9F0410646041D00F061
:1047F0004FFE04F1080540F27D274FF000780BE0F2
:10480000E068A84204D13A460EA115A002F0D2FAFF
:104810004146E06801F055F920680028F0D13046A3
:1048200001F0C5FCBDE8F04100F0A4BDA1E6B1E790
:104830000346002012B1994302D070470B42FCD0CE
:10484000012070472E2E5C6672656552544F535C92
:104850006576656E745F67726F7570732E630000A6
:104860004572726F723A25732C25640D0A000000A0
:1048700004ED00E000F108014FF0FF32C0E9011241
:10488000C160016100210160704700210161704732
:1048900042684A6093688B609368596091600861D0
:1048A0000168491C0160704730B50C68621C02D079
:1048B00000F1080202E0026904E01A4653681D682C
:1048C000A542FAD953684B6099608A6051600861CB
:1048D0000168491C016030BDD0E9013201699A606C
:1048E000D0E901235A604A68824201D182684A6055
:1048F000002202610868401E0860704770B50D46CE
:10490000040005D140F21B12F8A1FDA002F052FAFA
:1049100001F038FDD4E90F20216802FB001161602D
:104920000021A1632168A1600A46D4E90F01401E5D
:1049300000FB0121E16021464FF0FF3001F8440FF8
:10494000487004F110004DB1FFF794FF04F124000A
:10495000FFF790FF01F030FD012070BD21690029B3
:10496000F8D001F07AF80028F4D0E9494FF08050EF
:104970000860BFF34F8FBFF36F8FEBE770B50E4644
:10498000050005D14FF4C472D8A1DDA002F012FADF
:1049900096B105FB06F0483001F09EFB040009D0FB
:1049A00004F1480120464EB10160C0E90F560121D3
:1049B000FFF7A4FF204670BD0020ECE70060F4E79D
:1049C0002DE9F041044601F0DDFC94F9455004F175
:1049D000240609E0606A48B1304601F03EF808B1AB
:1049E00001F0EDF86D1E6DB2002DF3DC4FF0FF36D7
:1049F00084F8456001F0E0FC01F0C4FC94F94450F7
:104A000004F1100709E0206948B1384601F025F8A3
:104A100008B101F0D4F86D1E6DB2002DF3DC84F8FE
:104A20004460BDE8F04101F0C7BC2DE9F041856B61
:104A3000164604460027026CFAB17EB1E06801F028
:104A40002DFDE168206C091AE1602268914202D2D2
:104A50006168081AE060022E0DD00EE0A06801F037
:104A60001DFD216CA0680844A0606168884204D3E1
:104A70002068A06001E005B16D1E6D1CA56338467D
:104A8000BDE8F0812DE9FF4F83B01F468B4604003F
:104A90004FF0000605D140F2D92294A198A002F06F
:104AA00089F9BBF1000F07D1206C28B140F2DA225E
:104AB0008EA193A002F07EF9022F08D1E06B0128AD
:104AC00005D040F2DB2289A18DA002F073F901F03C
:104AD0007AF838B9059828B140F2DE2283A188A07F
:104AE00002F068F94FF0000A4FF08058DFF820928A
:104AF00001F048FCA06BE16B884205D3022F03D084
:104B00000598C8B1DEB11EE03A4659462046FFF787
:104B10008CFF616A19B104F1240000F09EFF28B1F6
:104B2000C9F80080BFF34F8FBFF36F8F01F044FCD3
:104B3000012007B0BDE8F08F01F03EFC21E068469F
:104B400000F0F9FF012601F037FC00F0A1FC01F0B4
:104B500019FC94F94400401C01D184F844A094F954
:104B60004500401C01D184F845A001F025FC05A9B1
:104B7000684600F0F1FF30B12046FFF721FF00F05A
:104B8000F9FB0020D5E701F0FDFBA06BE16B88424B
:104B900001D1012500E0002501F00EFC95B104F1E2
:104BA0001000059900F01BFF2046FFF709FF00F0F9
:104BB000E1FB00289CD1C9F80080BFF34F8FBFF301
:104BC0006F8F95E72046FFF7FBFE00F0D3FB8FE7E2
:104BD0002DE9F0471F4690468946040005D140F272
:104BE0009F3242A146A002F0E5F8B9F1000F07D1CB
:104BF000206C28B14FF468723CA141A002F0DAF8B1
:104C0000022F08D1E06B012805D040F2A13237A174
:104C10003BA002F0CFF801F0F4FB5020EFF3118637
:104C200080F31188BFF34F8FBFF36F8FA06BE16BE1
:104C3000884206D3022F04D0002086F31188BDE8F5
:104C4000F08794F945503A4649462046FFF7EDFE75
:104C5000681C04D06D1C84F845500120EDE7606AA3
:104C60000028FAD004F1240000F0F7FE0028F4D068
:104C7000B8F1000FF1D00121C8F80010EDE770B5D0
:104C80000E46040005D140F23C4218A11CA002F0DF
:104C900091F8206C28B14FF4886214A118A002F09A
:104CA00089F8206838B9606828B140F245420FA100
:104CB00013A002F07FF801F0A4FB5020EFF3118560
:104CC00080F31188BFF34F8FBFF36F8FA16BE06B41
:104CD00088422DD994F94500491CA163411C19D083
:104CE000401C84F84500012023E000002E2E5C6665
:104CF00072656552544F535C71756575652E63001E
:104D00004572726F723A25732C25640D0A000000FB
:104D100004ED00E0606A0028E5D004F1240000F012
:104D20009CFE0028DFD0002EDDD001203060DAE7C5
:104D3000002085F3118870BD30B4026C0B46002A48
:104D40000BD0C1681144C1604468A14201D301681D
:104D5000C16030BC184601F0A1BB30BC70472DE9E2
:104D6000FF4F83B09B468A4604004FF0000607D1F0
:104D700040F2DC42AFF28C01AFF27C0002F01AF894
:104D8000BAF1000F09D1206C38B140F2DD42AFF228
:104D9000A401AFF2940002F00DF800F014FF48B93E
:104DA000059838B14FF49C62AFF2C001AFF2B00089
:104DB00002F000F84FF000094FF08057DFF844830D
:104DC00001F0E0FAA56B0DB351462046E668FFF707
:104DD000B3FFBBF1000F11D0E660606A50B104F17F
:104DE000240000F03AFE28B1C8F80070BFF34F8FDE
:104DF000BFF36F8F01F0E0FA01209AE66D1EA56304
:104E000020690028F6D004F11000EAE7059808B1FF
:104E10001EB106E001F0D0FA27E0684600F08BFEF4
:104E2000012601F0C9FA00F033FB01F0ABFA94F966
:104E30004400401C01D184F8449094F94500401C82
:104E400001D184F8459001F0B7FA05A9684600F051
:104E500083FE002820460AD0FFF7B2FD00F08AFA50
:104E6000204600F041F90028AAD0002061E600F0B9
:104E70003BF990B104F12400059900F0B0FD204603
:104E8000FFF79EFD00F076FA002899D1C8F800706F
:104E9000BFF34F8FBFF36F8F92E72046FFF790FD70
:104EA00000F068FA8CE72DE9F04790468946040047
:104EB00007D14FF4B462AFF2CC11AFF2BC1001F0E5
:104EC00079FFB9F1000F09D1206C38B140F2A1523D
:104ED000AFF2E811AFF2D81001F06CFF01F091FAD7
:104EE0005020EFF3118780F31188BFF34F8FBFF38A
:104EF0006F8FA66BF6B194F9445049462046FFF7F0
:104F00001BFF761EA663681C04D06D1C84F84450F9
:104F1000012010E020690028FAD004F1100000F010
:104F20009CFD0028F4D0B8F1000FF1D00121C8F8A1
:104F30000010EDE7002087F3118880E62DE9F041AD
:104F40000E46040007D140F2FC52AFF26021AFF2EE
:104F5000502001F02FFF4EB9206C48B140F2FD52B5
:104F6000AFF27821AFF2682001F024FF206C38B94D
:104F700040F2FE52AFF28C21AFF27C2001F01AFF1A
:104F800001F03FFA5020EFF3118580F31188BFF351
:104F90004F8FBFF36F8FA06B30B131462046E7686B
:104FA000FFF7CAFE0120E76085F3118868E510B5B8
:104FB000040007D140F22F62AFF2D021AFF2C0203F
:104FC00001F0F8FE01F0DEF9A46B01F0F5F92046DE
:104FD00010BD10B5040007D140F24162AFF2F421D8
:104FE000AFF2E42001F0E6FE01F0CCF9D4E90E10B6
:104FF000441A01F0E1F9204610BD10B5040007D1B4
:1050000040F25162AFF21C31AFF20C3001F0D2FE2F
:10501000A06B10BD3C4A002102EBC1035B688342D8
:1050200006D1002042F8310002EBC1014860704710
:10503000491C0A29F0D3704710B5040007D140F28B
:105040005D62AFF25831AFF2483001F0B3FE204656
:10505000FFF7E0FF2046BDE8104001F0A8B810B50A
:10506000040007D140F29372AFF28031AFF270309A
:1050700001F0A0FEA06B08B1002010BD012010BD02
:1050800010B5040007D140F2BA72AFF2A031AFF20E
:10509000903001F08FFEA06BE16B884201D10120BE
:1050A00010BD002010BD10B5174B002253F8324040
:1050B0001CB1521C0A2AF9D310BD43F8321003EB7D
:1050C000C201486010BD10B500240F4A214602EB12
:1050D000C1035B68834202D152F8314002E0491CAF
:1050E0000A29F4D3204610BD10B5044601F04AF950
:1050F000A06B20B1002401F05FF9204610BD01240F
:10510000F9E7000004ED00E0580900202DE9F04126
:10511000054601F037F9FE4EB068401CB0603068BB
:10512000FC4F10B1706930B32BE03560B0680128D6
:1051300027D1002404EB840007EB8000FFF79AFBE3
:10514000641C202CF6D3F448FFF794FBF24814308B
:10515000FFF790FBF0482830FFF78CFBEE483C301F
:10516000FFF788FBEC485030FFF784FBEA48706398
:105170001430B06305E03068E96AC06A884200D83C
:105180003560706A0121401C7062E86A32698140B2
:105190001143316100EB800007EB8000291DFFF710
:1051A00077FB01F009F9706900280CD03068E96AD2
:1051B000C06A884207D2D9494FF080500860BFF3D7
:1051C0004F8FBFF36F8FBDE8F0812DE9FF5F8346FE
:1051D000DDE90E87994616468A46900000F07CFF6E
:1051E00005001AD04C2000F077FF040012D0256390
:1051F0000021CDE90241CDE900874B4632465146B8
:10520000584600F0A9FE2046FFF780FF012004B0B9
:10521000BDE8F09F284600F0CAFF4FF0FF30F6E7E8
:1052200070B5044601F0AEF8B94D04B92C68201DE4
:10523000FFF752FB58B9E06AB64A00EB800152F81A
:10524000211021B901218140286988432861A06A81
:1052500018B104F11800FFF73FFB686A401C686250
:105260002868844208D1AC48211D3C30FFF710FB70
:105270006868401C686007E0A868401EA860204677
:1052800000F0BBFE00F0ACFE01F096F86869002863
:1052900012D0286884420FD1286B28B140F26542B1
:1052A0009FA1A4A001F086FD9C494FF080500860AA
:1052B000BFF34F8FBFF36F8F70BD2DE9F041944F57
:1052C0000026386B38B1B869401CB861F86900B184
:1052D0000126304677E7FD686D1CFD6011D1786BC3
:1052E000006828B140F6D9128DA192A001F062FDAC
:1052F000786BB96B7963B863386A401C386200F028
:105300006FFEB86ADFF80C82854209D3786B0068BB
:1053100080B1786BC068C468606885420DD2B8629D
:105320003868C06A00EB800158F821000128CDD907
:105330000126CBE74FF0FF30F1E7201DFFF7CCFA55
:10534000A06A18B104F11800FFF7C6FAE06A01215B
:105350003A6981401143396100EB800108EB81001B
:10536000211DFFF795FAE06A3968C96A8842CDD3F2
:105370000126CBE72DE9F047654D00242746286B31
:1053800028B94FF4FD6266A16AA001F013FD00F098
:10539000F9FF286B401E2863286BE0BBA8685E49B4
:1053A00028310126B8B3DFF86C918846D8F8001090
:1053B000E9B1D8F80C00C46804F11800FFF78CFAC2
:1053C000201DFFF789FAE06A2A6906FA00F1114305
:1053D000296100EB800109EB8100211DFFF758FADC
:1053E000E06A2968C96A8842E0D3EE61DEE70CB161
:1053F00000F0F6FDAC693CB1FFF75FFF00B1EE6174
:10540000641EF9D10020A861E86920B14349012751
:105410003807086000E003E0BFF34F8FBFF36F8FE2
:1054200000F0CAFF3846BDE8F0872DE9F041384E5C
:105430000F460446F5683068001DFFF74DFA38B98D
:10544000306890F82C100120884031698143316127
:10545000601C08D13FB13168BDE8F0412E485030A2
:10546000091DFFF715BA30682C44AC42446031681E
:1054700005D2B06BBDE8F041091DFFF715BA706B9E
:10548000091DFFF711FAB06A844200D2B4629AE6AD
:105490001F48016B491C016370472DE9F0410E461E
:1054A00005004FF0000405D140F279421CA121A073
:1054B00001F080FC2EB940F27A4219A11DA001F042
:1054C00079FC134F386B28B140F27B4214A119A02C
:1054D00001F070FCFFF7DCFFFA6828688119904240
:1054E00002D9884202D804E0884201D8914200D90A
:1054F000012429601CB1881A0021FFF796FFFFF7ED
:1055000039FF002822D105494FF08050086019E08A
:105510005C000020A8090020280C002004ED00E019
:105520002E2E5C6672656552544F535C7461736BCA
:10553000732E63004572726F723A25732C25640DC9
:105540000A000000BFF34F8FBFF36F8F3BE610B52B
:10555000040014D0FE49096B39B140F2CF42AFF2DA
:105560004001AFF2300001F025FCFFF791FF002170
:105570002046FFF75AFFFFF7FDFE002807D1F54947
:105580004FF080500860BFF34F8FBFF36F8F10BD97
:1055900070B5050007D140F2FB42AFF27C01AFF2DB
:1055A0006C0001F007FCEA4E3068854201D1002012
:1055B00070BD00F0E7FE6C6900F0FEFE706B844287
:1055C00002D0B06B844201D1022070BDE248844217
:1055D00004D1A86A0028F7D1032070BDDE48143832
:1055E000844202D00CB1012070BD042070BD10B502
:1055F000044600F0C7FE0CB9D5480468E46A00F020
:10560000DBFE204610BD10B5044600F0FAFE502027
:10561000EFF3118180F31188BFF34F8FBFF36F8FCA
:105620000CB9CB480468E06A81F3118810BD2DE9FC
:10563000F04100260D460446202908D34FF4B062FD
:10564000AFF22411AFF2141001F0B4FB1F2500F0EB
:1056500099FEBF4F04B93C68E06AA8423BD0396864
:10566000854206D98C4207D03968C96AA94202D955
:1056700002E08C4200D101268046E562A069002844
:1056800002DBC5F12000A061B44D08EB8800616920
:1056900005EB8000814215D1201DFFF71DF9012186
:1056A00020B93A6901FA08F082433A61E06A3A693E
:1056B00081401143396100EB800005EB8000211D22
:1056C000FFF7E6F83EB1A3494FF080500860BFF302
:1056D0004F8FBFF36F8FBDE8F04100F06DBE70B526
:1056E0009B4D286B10B10120E86170BD0020E8617E
:1056F00028699A4EB0FA80F0C0F11F0000EB8004D8
:1057000056F8240038B940F6F622AFF2EC11AFF2A9
:10571000DC1001F04FFB06EB840000F10802416849
:1057200049684160914201D149684160C868286078
:1057300070BD70B5044600F025FE854D04B92C6897
:10574000201DFFF7C9F858B9E06A844A00EB8001D0
:1057500052F8211021B9012181402869884328612C
:10576000A06A18B104F11800FFF7B6F8211D7A48B5
:10577000FFF78EF800F020FE686928B100F002FE05
:1057800000F02EFC00F018FE2868844213D16869EE
:1057900090B1286B38B140F25762AFF27C21AFF282
:1057A0006C2001F007FB6B494FF080500860BFF39D
:1057B0004F8FBFF36F8F70BD6748A968006888423C
:1057C00002D10020286070BDBDE8704087E770B549
:1057D0000025040007D140F28162AFF2BC21AFF294
:1057E000AC2001F0E7FA5C496069884205D1A06A03
:1057F0002839884201D000B90125284670BD70B50E
:1058000004002BD0524D2868844231D000F0BAFDFC
:105810002046FFF7DCFFE8B1201DFFF75DF8E06AE6
:1058200001212A698140114329614C4900EB800024
:1058300001EB8000211DFFF72BF8E06A2968C96A97
:10584000884207D343494FF080500860BFF34F8F21
:10585000BFF36F8FBDE8704000F0AEBD40F2AB62A9
:10586000AFF24431AFF23430BDE8704001F0A2BA7B
:1058700070BD2DE9F0410026040007D140F2E2623C
:10588000AFF26431AFF2543001F094FA00F0B9FD98
:105890005020EFF3118580F31188BFF34F8FBFF3D2
:1058A0006F8F2046FFF793FFF0B1294F386B20B17F
:1058B000294804F11801283814E0E06A3968C96AF7
:1058C000884200D30126201DFFF706F8E06A012177
:1058D0003A69814011433961204900EB800001EBB6
:1058E0008000211DFEF7D4FF85F3118830466AE45D
:1058F0001A4E4FF08054174D00F089FB3068012894
:10590000FAD92C60BFF34F8FBFF36F8FF4E71CB54C
:105910000F4800242C30CDE900402346802210A1FE
:105920001148FFF752FC01280CD0401C2BD140F24B
:105930008472AFF21441AFF2044002B0BDE81040EF
:1059400001F038BA502080F31188BFF34F8F0DE07B
:105950005C00002004ED00E0780C0020A809002085
:1059600049444C4500000000F1580008BFF36F8F18
:10597000FF484FF0FF31816201214161C460BDE801
:105980001C4000F0BDBC1CBD502080F31188BFF34B
:105990004F8FBFF36F8FF6490020486100F0E6BCDF
:1059A000F348C068704710B500F02BFDF048C068A0
:1059B00010BDEF488068704710B510B104461CB1A7
:1059C0000AE0EB480468FAE740F68C02AFF2B04117
:1059D000AFF2A04001F0EEF904F1340010BD70B553
:1059E0000D46040007D140F60632AFF2CC41AFF2CB
:1059F000BC4001F0DFF9DE48016820461831FEF7AF
:105A000053FF2846BDE8704001210EE52DE9F04125
:105A100017460E46050007D140F61732AFF2005187
:105A2000AFF2F04001F0C6F9D14C206B38B940F626
:105A30001B32AFF21451AFF2045001F0BBF92168F0
:105A400046F000408861216828461831FEF720FFA3
:105A50003846BDE8F0410121E7E42DE9F041C06896
:105A6000C4683CB940F66132AFF24C51AFF23C50E1
:105A700001F0A0F904F118000746FEF72DFFBC4D18
:105A8000286B012658B13946BA48FEF701FFE06A93
:105A90002968C96A884212D90120EE611AE4201DE2
:105AA000FEF71AFFE06A2A6906FA00F1114329613C
:105AB000B14900EB800001EB8000211DE5E70020EB
:105AC00008E470B5AA4D06460C46286B38B940F676
:105AD0009932AFF2B451AFF2A45001F06BF944F037
